{
  "contractName": "BBU",
  "abi": [
    {
      "inputs": [
        {
          "internalType": "contract BBUERC20",
          "name": "token",
          "type": "address"
        },
        {
          "internalType": "address payable",
          "name": "gameAdmin",
          "type": "address"
        }
      ],
      "stateMutability": "nonpayable",
      "type": "constructor"
    },
    {
      "anonymous": false,
      "inputs": [
        {
          "indexed": true,
          "internalType": "address",
          "name": "player1",
          "type": "address"
        },
        {
          "indexed": false,
          "internalType": "string",
          "name": "gameId",
          "type": "string"
        },
        {
          "indexed": false,
          "internalType": "uint256",
          "name": "bet",
          "type": "uint256"
        },
        {
          "indexed": false,
          "internalType": "bool",
          "name": "nativeCurrency",
          "type": "bool"
        }
      ],
      "name": "GameCreated",
      "type": "event"
    },
    {
      "anonymous": false,
      "inputs": [
        {
          "indexed": false,
          "internalType": "string",
          "name": "gameId",
          "type": "string"
        },
        {
          "indexed": false,
          "internalType": "uint8",
          "name": "winner",
          "type": "uint8"
        }
      ],
      "name": "GameFinished",
      "type": "event"
    },
    {
      "anonymous": false,
      "inputs": [
        {
          "indexed": false,
          "internalType": "string",
          "name": "gameId",
          "type": "string"
        },
        {
          "indexed": true,
          "internalType": "address",
          "name": "player1",
          "type": "address"
        },
        {
          "indexed": true,
          "internalType": "address",
          "name": "player2",
          "type": "address"
        }
      ],
      "name": "GameStarted",
      "type": "event"
    },
    {
      "anonymous": false,
      "inputs": [
        {
          "indexed": true,
          "internalType": "address",
          "name": "player",
          "type": "address"
        },
        {
          "indexed": false,
          "internalType": "string",
          "name": "pseudo",
          "type": "string"
        }
      ],
      "name": "PlayerRegistered",
      "type": "event"
    },
    {
      "stateMutability": "payable",
      "type": "fallback"
    },
    {
      "inputs": [],
      "name": "_gameAdmin",
      "outputs": [
        {
          "internalType": "address payable",
          "name": "",
          "type": "address"
        }
      ],
      "stateMutability": "view",
      "type": "function"
    },
    {
      "stateMutability": "payable",
      "type": "receive"
    },
    {
      "inputs": [
        {
          "internalType": "string",
          "name": "pseudo",
          "type": "string"
        }
      ],
      "name": "register",
      "outputs": [],
      "stateMutability": "nonpayable",
      "type": "function"
    },
    {
      "inputs": [],
      "name": "unregister",
      "outputs": [],
      "stateMutability": "nonpayable",
      "type": "function"
    },
    {
      "inputs": [
        {
          "internalType": "string",
          "name": "gameId",
          "type": "string"
        },
        {
          "internalType": "uint256",
          "name": "bet",
          "type": "uint256"
        }
      ],
      "name": "createGame",
      "outputs": [],
      "stateMutability": "payable",
      "type": "function"
    },
    {
      "inputs": [
        {
          "internalType": "string",
          "name": "gameId",
          "type": "string"
        }
      ],
      "name": "joinGame",
      "outputs": [
        {
          "internalType": "bool",
          "name": "",
          "type": "bool"
        }
      ],
      "stateMutability": "payable",
      "type": "function"
    },
    {
      "inputs": [
        {
          "internalType": "string",
          "name": "gameId",
          "type": "string"
        },
        {
          "internalType": "uint8",
          "name": "playerId",
          "type": "uint8"
        },
        {
          "internalType": "bytes32",
          "name": "moveIntention",
          "type": "bytes32"
        }
      ],
      "name": "submitIntention",
      "outputs": [
        {
          "internalType": "bool",
          "name": "",
          "type": "bool"
        }
      ],
      "stateMutability": "nonpayable",
      "type": "function"
    },
    {
      "inputs": [
        {
          "internalType": "string",
          "name": "gameId",
          "type": "string"
        },
        {
          "internalType": "uint8",
          "name": "playerId",
          "type": "uint8"
        },
        {
          "internalType": "uint256",
          "name": "move",
          "type": "uint256"
        },
        {
          "internalType": "uint256",
          "name": "seed",
          "type": "uint256"
        }
      ],
      "name": "submitMove",
      "outputs": [
        {
          "internalType": "uint8",
          "name": "",
          "type": "uint8"
        }
      ],
      "stateMutability": "nonpayable",
      "type": "function"
    },
    {
      "inputs": [
        {
          "internalType": "uint256",
          "name": "amount",
          "type": "uint256"
        }
      ],
      "name": "claimNativeRewards",
      "outputs": [],
      "stateMutability": "nonpayable",
      "type": "function"
    },
    {
      "inputs": [
        {
          "internalType": "uint256",
          "name": "amount",
          "type": "uint256"
        }
      ],
      "name": "claimTokenRewards",
      "outputs": [],
      "stateMutability": "nonpayable",
      "type": "function"
    },
    {
      "inputs": [],
      "name": "tokenAddress",
      "outputs": [
        {
          "internalType": "address",
          "name": "",
          "type": "address"
        }
      ],
      "stateMutability": "view",
      "type": "function"
    },
    {
      "inputs": [
        {
          "internalType": "string",
          "name": "gameId",
          "type": "string"
        }
      ],
      "name": "gameInfo",
      "outputs": [
        {
          "components": [
            {
              "internalType": "bool",
              "name": "initialized",
              "type": "bool"
            },
            {
              "internalType": "uint256",
              "name": "bet",
              "type": "uint256"
            },
            {
              "internalType": "address[2]",
              "name": "players",
              "type": "address[2]"
            },
            {
              "internalType": "bytes32[2]",
              "name": "playersMoveIntention",
              "type": "bytes32[2]"
            },
            {
              "internalType": "uint256[2]",
              "name": "playersMove",
              "type": "uint256[2]"
            },
            {
              "internalType": "bytes32[2]",
              "name": "playersMoveSeed",
              "type": "bytes32[2]"
            },
            {
              "internalType": "uint8",
              "name": "gameStatus",
              "type": "uint8"
            },
            {
              "internalType": "uint8",
              "name": "winner",
              "type": "uint8"
            },
            {
              "internalType": "bool",
              "name": "nativeCurrency",
              "type": "bool"
            }
          ],
          "internalType": "struct IBBU.Game",
          "name": "",
          "type": "tuple"
        }
      ],
      "stateMutability": "view",
      "type": "function"
    },
    {
      "inputs": [],
      "name": "myInfo",
      "outputs": [
        {
          "components": [
            {
              "internalType": "bool",
              "name": "initialized",
              "type": "bool"
            },
            {
              "internalType": "string",
              "name": "pseudo",
              "type": "string"
            },
            {
              "internalType": "uint256",
              "name": "gamesPlayed",
              "type": "uint256"
            },
            {
              "internalType": "uint256",
              "name": "gamesWon",
              "type": "uint256"
            },
            {
              "internalType": "uint256",
              "name": "gamesLost",
              "type": "uint256"
            },
            {
              "internalType": "uint256",
              "name": "gamesDraw",
              "type": "uint256"
            },
            {
              "internalType": "uint256",
              "name": "level",
              "type": "uint256"
            },
            {
              "internalType": "uint8[3]",
              "name": "cardsLevel",
              "type": "uint8[3]"
            },
            {
              "internalType": "uint256",
              "name": "pendingNativeRewards",
              "type": "uint256"
            },
            {
              "internalType": "uint256",
              "name": "pendingTokenRewards",
              "type": "uint256"
            }
          ],
          "internalType": "struct IBBU.Player",
          "name": "",
          "type": "tuple"
        }
      ],
      "stateMutability": "view",
      "type": "function"
    },
    {
      "inputs": [
        {
          "internalType": "address",
          "name": "playerAddress",
          "type": "address"
        }
      ],
      "name": "playerInfo",
      "outputs": [
        {
          "components": [
            {
              "internalType": "bool",
              "name": "initialized",
              "type": "bool"
            },
            {
              "internalType": "string",
              "name": "pseudo",
              "type": "string"
            },
            {
              "internalType": "uint256",
              "name": "gamesPlayed",
              "type": "uint256"
            },
            {
              "internalType": "uint256",
              "name": "gamesWon",
              "type": "uint256"
            },
            {
              "internalType": "uint256",
              "name": "gamesLost",
              "type": "uint256"
            },
            {
              "internalType": "uint256",
              "name": "gamesDraw",
              "type": "uint256"
            },
            {
              "internalType": "uint256",
              "name": "level",
              "type": "uint256"
            },
            {
              "internalType": "uint8[3]",
              "name": "cardsLevel",
              "type": "uint8[3]"
            },
            {
              "internalType": "uint256",
              "name": "pendingNativeRewards",
              "type": "uint256"
            },
            {
              "internalType": "uint256",
              "name": "pendingTokenRewards",
              "type": "uint256"
            }
          ],
          "internalType": "struct IBBU.Player",
          "name": "",
          "type": "tuple"
        }
      ],
      "stateMutability": "view",
      "type": "function"
    },
    {
      "inputs": [
        {
          "internalType": "uint256",
          "name": "_choiceCode",
          "type": "uint256"
        },
        {
          "internalType": "uint256",
          "name": "_randomNumber",
          "type": "uint256"
        }
      ],
      "name": "calculateHash",
      "outputs": [
        {
          "internalType": "bytes32",
          "name": "",
          "type": "bytes32"
        }
      ],
      "stateMutability": "pure",
      "type": "function"
    }
  ],
  "bytecode": "0x60806040526004805460ff60a01b191690553480156200001e57600080fd5b5060405162002b6338038062002b63833981016040819052620000419162000218565b600280546001600160a01b039384166001600160a01b031991821617825560048054939094169216919091179091557ffb8d863de1250aa620936e91467e1af01a92eb0e70a9507f29fbc3ded4c65f25805460ff199081169091557f63383099118369e3b7e10810450c200ba30ca74f16a798c21d846e7b8f29f8e580548216831790557f42029653146ebe413226ce23cfae86379992b393c3fb402468cadcf83978e5178054821660019081179091557f7cc2ad579ffe0e9670c4ed407723dde34cdc5f3ce03ea5a5fd278a558b291aec80548316821790557fae01d7727e6eee9de04cfde373d61a6d46a5148baca09e4486c66e17138a24b08054831690557fb5393891b91a131a387ee1b19930cdd1ad27daef25ba41760fd9b6d081b525a180548316841790557f0d60a508ebb86c28623483b6a7bf2e80fc3af8771db795d276285a14f2c28449805483169093179092557f2d19eda09601d1463635d7fc9423b306d872432a8744d619896dcaa1b49aef2c8054821690921790915560036000527fcbc4e5fb02c3d1de23a9f1e014b4d2ee5aeaea9505df5e855c9210bf472495af6020527fa317fea477ba68011b572a98152ad41791d628652947d866e9083028565b055b805490911690556200026f565b600080604083850312156200022b578182fd5b8251620002388162000256565b60208401519092506200024b8162000256565b809150509250929050565b6001600160a01b03811681146200026c57600080fd5b50565b6128e4806200027f6000396000f3fe6080604052600436106100e15760003560e01c80636dd5e67c1161007f578063c0a0a96711610059578063c0a0a96714610258578063cf2c86d71461028a578063e79a198f146102aa578063f2c298be146102bf576100e8565b80636dd5e67c1461021257806385b31d7b146102255780639d76ea581461023a576100e8565b80633d536a2e116100bb5780633d536a2e146101775780634b1146911461018a5780634c3409d0146101b757806351031696146101e4576100e8565b80631eeb82be146100ea5780631f69ee9f1461012757806332e42efb14610157576100e8565b366100e857005b005b3480156100f657600080fd5b5060045461010a906001600160a01b031681565b6040516001600160a01b0390911681526020015b60405180910390f35b34801561013357600080fd5b50610147610142366004612363565b6102df565b604051901515815260200161011e565b34801561016357600080fd5b506100e8610172366004612413565b61054a565b6101476101853660046122ed565b610631565b34801561019657600080fd5b506101aa6101a53660046122a6565b6108d6565b60405161011e91906126d4565b3480156101c357600080fd5b506101d76101d23660046122ed565b610a52565b60405161011e919061263d565b3480156101f057600080fd5b506102046101ff36600461242b565b610bae565b60405190815260200161011e565b6100e8610220366004612320565b610c2b565b34801561023157600080fd5b506101aa610eff565b34801561024657600080fd5b506002546001600160a01b031661010a565b34801561026457600080fd5b506102786102733660046123b8565b610f15565b60405160ff909116815260200161011e565b34801561029657600080fd5b506100e86102a5366004612413565b611466565b3480156102b657600080fd5b506100e86114eb565b3480156102cb57600080fd5b506100e86102da3660046122ed565b61157b565b6000836001816040516102f291906124ed565b9081526040519081900360200190205460ff1661032a5760405162461bcd60e51b815260040161032190612614565b60405180910390fd5b3360009081526020819052604090205460ff166103595760405162461bcd60e51b8152600401610321906125dd565b600060018660405161036b91906124ed565b908152604051908190036020019020600a81015490915060ff166001146103ca5760405162461bcd60e51b8152602060048201526013602482015272696e76616c69642067616d652073746174757360681b6044820152606401610321565b8460ff16600114806103df57508460ff166002145b6103fb5760405162461bcd60e51b8152600401610321906125b2565b336002820161040b6001886127fe565b60ff166002811061042c57634e487b7160e01b600052603260045260246000fd5b01546001600160a01b0316146104545760405162461bcd60e51b8152600401610321906125b2565b6000600482016104656001886127fe565b60ff166002811061048657634e487b7160e01b600052603260045260246000fd5b0154146104e05760405162461bcd60e51b815260206004820152602260248201527f706c6179657220696e74656e74696f6e20616c7265616479207375626d697474604482015261195960f21b6064820152608401610321565b83600482016104f06001886127fe565b60ff166002811061051157634e487b7160e01b600052603260045260246000fd5b01556004810154158015906105295750600581015415155b1561053e57600a8101805460ff191660021790555b50600195945050505050565b3360009081526020819052604090205460ff166105795760405162461bcd60e51b8152600401610321906125dd565b33600090815260208190526040902060088101548211156105ac5760405162461bcd60e51b81526004016103219061256b565b60088101546105bb9083611717565b600882015560405133908190600090829086156108fc0290879084818181858888f1935050505090508061062a5760405162461bcd60e51b815260206004820152601660248201527521b630b4b6902a3930b739b332b9103330b4b632b21760511b6044820152606401610321565b5050505050565b60008160018160405161064491906124ed565b9081526040519081900360200190205460ff166106735760405162461bcd60e51b815260040161032190612614565b3360009081526020819052604090205460ff166106a25760405162461bcd60e51b8152600401610321906125dd565b600454600160a01b900460ff16156106f75760405162461bcd60e51b81526020600482015260186024820152775265656e7472616e742063616c6c2064657465637465642160401b6044820152606401610321565b6004805460ff60a01b1916600160a01b17905560405160009060019061071e9086906124ed565b9081526040519081900360200190209050600060028201600101546001600160a01b03161461077f5760405162461bcd60e51b815260206004820152600d60248201526c1c185c9d1e481a5cc8199d5b1b609a1b6044820152606401610321565b60028101546001600160a01b03163314156107e75760405162461bcd60e51b815260206004820152602260248201527f706c6179657273206d75737420626520646966666572656e74206163636f756e604482015261747360f01b6064820152608401610321565b600a81015462010000900460ff161561084e57806001015434101561084e5760405162461bcd60e51b815260206004820152601760248201527f696e73756666696369656e742062657420616d6f756e740000000000000000006044820152606401610321565b61085b8160010154611760565b506003810180546001600160a01b0319163390811790915560028201546040516001600160a01b0391909116907f7060dfdf1466d0ff484a2d98ec0becd4b60b43e56051281b077dda23f0b2cedc906108b5908890612509565b60405180910390a3506004805460ff60a01b19169055600191505b50919050565b6108de611f3a565b6001600160a01b0382166000908152602081815260409182902082516101408101909352805460ff1615158352600181018054919284019161091f9061284d565b80601f016020809104026020016040519081016040528092919081815260200182805461094b9061284d565b80156109985780601f1061096d57610100808354040283529160200191610998565b820191906000526020600020905b81548152906001019060200180831161097b57829003601f168201915b50505050508152602001600282015481526020016003820154815260200160048201548152602001600582015481526020016006820154815260200160078201600380602002604051908101604052809291908260038015610a2d576020028201916000905b825461010083900a900460ff168152602060019283018181049485019490930390920291018084116109fe5790505b505050505081526020016008820154815260200160098201548152505090505b919050565b610a5a611f95565b600182604051610a6a91906124ed565b908152604080516020928190038301812061012082018352805460ff1615158252600181015493820193909352815180830180845291939284019160028085019182845b81546001600160a01b03168152600190910190602001808311610aae575050509183525050604080518082019182905260209092019190600484019060029082845b815481526020019060010190808311610af0575050509183525050604080518082019182905260209092019190600684019060029082845b815481526020019060010190808311610b28575050509183525050604080518082019182905260209092019190600884019060029082845b815481526020019060010190808311610b60575050509183525050600a919091015460ff80821660208401526101008204811660408401526201000090910416151560609091015292915050565b600081604051602001610bc391815260200190565b60408051601f19818403018152828252805160209182012090830186905291016040516020818303038152906040528051906020012018604051602001610c0c91815260200190565b6040516020818303038152906040528051906020012090505b92915050565b3360009081526020819052604090205460ff16610c5a5760405162461bcd60e51b8152600401610321906125dd565b600454600160a01b900460ff1615610caf5760405162461bcd60e51b81526020600482015260186024820152775265656e7472616e742063616c6c2064657465637465642160401b6044820152606401610321565b600182604051610cbf91906124ed565b9081526040519081900360200190205460ff1615610d1f5760405162461bcd60e51b815260206004820152601760248201527f67616d6520616c726561647920726567697374657265640000000000000000006044820152606401610321565b6004805460ff60a01b1916600160a01b1790556000610d3d82611760565b9050818115610d495750345b604080518082018252338152600060208083018290528351808501855282815280820183905284518086018652838152808301849052855180870187528481528084018590528651610120810188526001808252948101899052808801879052606081018490526080810183905260a0810182905260c0810185905260e08101959095528815156101008601529551949591949093919290610dec908b906124ed565b90815260408051602092819003830190208351815460ff1916901515178155918301516001830155820151610e279060028084019190611ff7565b506060820151610e3d906004830190600261204f565b506080820151610e53906006830190600261204f565b5060a0820151610e69906008830190600261204f565b5060c0820151600a909101805460e0840151610100948501511515620100000262ff00001960ff92831690960261ffff199093169190941617179290921617905560405133907f3a329edc6ff5bbbb8d0abf96018f21f96be35e03a69b909c3fed5266e2c045ab90610ee0908b9089908b9061251c565b60405180910390a250506004805460ff60a01b19169055505050505050565b610f07611f3a565b610f10336108d6565b905090565b600084600181604051610f2891906124ed565b9081526040519081900360200190205460ff16610f575760405162461bcd60e51b815260040161032190612614565b3360009081526020819052604090205460ff16610f865760405162461bcd60e51b8152600401610321906125dd565b6000600187604051610f9891906124ed565b908152604051908190036020019020600a81015490915060ff16600214610ff75760405162461bcd60e51b8152602060048201526013602482015272696e76616c69642067616d652073746174757360681b6044820152606401610321565b8560ff166001148061100c57508560ff166002145b6110285760405162461bcd60e51b8152600401610321906125b2565b33600282016110386001896127fe565b60ff166002811061105957634e487b7160e01b600052603260045260246000fd5b01546001600160a01b0316146110815760405162461bcd60e51b8152600401610321906125b2565b6000600682016110926001896127fe565b60ff16600281106110b357634e487b7160e01b600052603260045260246000fd5b0154146111025760405162461bcd60e51b815260206004820152601d60248201527f706c61796572206d6f766520616c7265616479207375626d69747465640000006044820152606401610321565b60018510801590611114575060038511155b61114f5760405162461bcd60e51b815260206004820152600c60248201526b696e76616c6964206d6f766560a01b6044820152606401610321565b600061115b8686610bae565b90506004820161116c6001896127fe565b60ff166002811061118d57634e487b7160e01b600052603260045260246000fd5b015481146112035760405162461bcd60e51b815260206004820152603a60248201527f7375626d6974746564206d6f766520697320646966666572656e74207468616e60448201527f2070726576696f75736c7920636f6d6d6974746564206d6f76650000000000006064820152608401610321565b856006830161121360018a6127fe565b60ff166002811061123457634e487b7160e01b600052603260045260246000fd5b0155846008830161124660018a6127fe565b60ff166002811061126757634e487b7160e01b600052603260045260246000fd5b015560068201541580159061127f5750600782015415155b1561145657600682015460009081526003602081815260408084206007870154855282529283902054600a8601805461ffff191661010060ff9384160260ff19161790931790925582516101208101845285549092161515825260018501549082015281518083018084526113fc9386929084019160028085019182845b81546001600160a01b031681526001909101906020018083116112fd575050509183525050604080518082019182905260209092019190600484019060029082845b81548152602001906001019080831161133f575050509183525050604080518082019182905260209092019190600684019060029082845b815481526020019060010190808311611377575050509183525050604080518082019182905260209092019190600884019060029082845b8154815260200190600101908083116113af575050509183525050600a919091015460ff8082166020840152610100820481166040840152620100009091041615156060909101526118b8565b600a8201546040517f6f6d6f2b0841e1a2be05a0d18f9845593e298dbc193bed7461a75132a525515f9161143a918b91610100900460ff1690612546565b60405180910390a150600a0154610100900460ff16915061145d565b6000935050505b50949350505050565b3360009081526020819052604090205460ff166114955760405162461bcd60e51b8152600401610321906125dd565b33600090815260208190526040902060098101548211156114c85760405162461bcd60e51b81526004016103219061256b565b60098101546114d79083611717565b60098201556114e7303384611aa4565b5050565b3360009081526020819052604090205460ff1661151a5760405162461bcd60e51b8152600401610321906125dd565b336000908152602081905260408120805460ff191681559061153f600183018261207d565b60006002830181905560038301819055600483018190556005830181905560068301819055600783015550600060088201819055600990910155565b3360009081526020819052604090205460ff16156115db5760405162461bcd60e51b815260206004820152601960248201527f706c6179657220616c72656164792072656769737465726564000000000000006044820152606401610321565b60408051606080820183526001808352602080840182905283850182905284516101408101865282815280820187815260008288018190529482018590526080820185905260a0820185905260c0820184905260e0820186905261010082018590526101208201859052338552848352959093208351815460ff191690151517815594518051949593946116769385019291909101906120bc565b5060408201518160020155606082015181600301556080820151816004015560a0820151816005015560c0820151816006015560e0820151816007019060036116c092919061212f565b5061010082015160088201556101209091015160099091015560405133907fe04d23b73ae3d3b27074da9719b5a4cd521395aaf86bfe7e374933ecb567731a9061170b908590612509565b60405180910390a25050565b600061175983836040518060400160405280601e81526020017f536166654d6174683a207375627472616374696f6e206f766572666c6f770000815250611b01565b9392505050565b60008061176c83611b3b565b9050600061177a8483611b4d565b905060006117888583611717565b90508215611889576004546040516000916001600160a01b03169084156108fc0290859084818181858888f193505050509050806118085760405162461bcd60e51b815260206004820152601b60248201527f47616d652041646d696e205472616e73666572206661696c65642e00000000006044820152606401610321565b60405130908190600090829086156108fc0290879084818181858888f193505050509050806118795760405162461bcd60e51b815260206004820152601960248201527f47616d6520426574205472616e73666572206661696c65642e000000000000006044820152606401610321565b6001975050505050505050610a4d565b6004546118a19033906001600160a01b031684611aa4565b6118ac333083611aa4565b60009350505050610a4d565b600080600083604001516000600281106118e257634e487b7160e01b600052603260045260246000fd5b60200201516001600160a01b03166001600160a01b0316815260200190815260200160002090506000806000846040015160016002811061193357634e487b7160e01b600052603260045260246000fd5b60200201516001600160a01b03166001600160a01b03168152602001908152602001600020905061197260018360020154611b8290919063ffffffff16565b600280840191909155810154611989906001611b82565b600282015560208301516101008401516000916119a591611be1565b90508360e0015160ff1660011415611a195760068301546119c7906001611b82565b600684015560038301546119dc906001611b82565b60038401556119ed84846001611c0d565b60048201546119fd906001611b82565b6004830155610100840151611a1490849083611cf4565b611a9e565b8360e0015160ff1660021415611a71576006820154611a39906001611b82565b6006830155611a4a84836002611c0d565b6004830154611a5a906001611b82565b6004840155610100840151611a1490839083611cf4565b6005830154611a81906001611b82565b600580850191909155820154611a98906001611b82565b60058301555b50505050565b604080516001600160a01b0385811660248301528416604482015260648082018490528251808303909101815260849091019091526020810180516001600160e01b03166323b872dd60e01b179052611afc90611d2c565b505050565b60008184841115611b255760405162461bcd60e51b81526004016103219190612509565b506000611b3284866127e7565b95945050505050565b6000811580610c255750505034151590565b60008115611b7257611b6b6064611b65856005611e50565b90611ecf565b9050610c25565b611b6b6064611b65856003611e50565b600080611b8f838561276b565b9050838110156117595760405162461bcd60e51b815260206004820152601b60248201527f536166654d6174683a206164646974696f6e206f766572666c6f7700000000006044820152606401610321565b600080611bee8484611b4d565b9050611c056002611bff8684611717565b90611e50565b949350505050565b6080830151600090611c206001846127fe565b60ff1660028110611c4157634e487b7160e01b600052603260045260246000fd5b60200201519050600060078401611c596001846127fe565b60ff1660038110611c7a57634e487b7160e01b600052603260045260246000fd5b602081049091015460ff601f9092166101000a9004169050611c9d816001612783565b60078501611cac6001856127fe565b60ff1660038110611ccd57634e487b7160e01b600052603260045260246000fd5b602091828204019190066101000a81548160ff021916908360ff1602179055505050505050565b8115611d13576008830154611d099082611b82565b6008840155611afc565b6009830154611d229082611b82565b6009840155505050565b60025460405160009182916001600160a01b0390911690611d4e9085906124ed565b6000604051808303816000865af19150503d8060008114611d8b576040519150601f19603f3d011682016040523d82523d6000602084013e611d90565b606091505b509150915081611dd65760405162461bcd60e51b8152602060048201526011602482015270151bdad95b8818d85b1b0819985a5b1959607a1b6044820152606401610321565b805115611afc5780806020019051810190611df191906122cd565b611afc5760405162461bcd60e51b815260206004820152602a60248201527f5361666545524332303a204552433230206f7065726174696f6e20646964206e6044820152691bdd081cdd58d8d9595960b21b6064820152608401610321565b600082611e5f57506000610c25565b6000611e6b83856127c8565b905082611e7885836127a8565b146117595760405162461bcd60e51b815260206004820152602160248201527f536166654d6174683a206d756c7469706c69636174696f6e206f766572666c6f6044820152607760f81b6064820152608401610321565b600061175983836040518060400160405280601a81526020017f536166654d6174683a206469766973696f6e206279207a65726f00000000000081525060008183611f2d5760405162461bcd60e51b81526004016103219190612509565b506000611b3284866127a8565b604051806101400160405280600015158152602001606081526020016000815260200160008152602001600081526020016000815260200160008152602001611f816121bd565b815260200160008152602001600081525090565b604080516101208101825260008082526020820152908101611fb56121db565b8152602001611fc26121db565b8152602001611fcf6121db565b8152602001611fdc6121db565b81526000602082018190526040820181905260609091015290565b826002810192821561203f579160200282015b8281111561203f57825182546001600160a01b0319166001600160a01b0390911617825560209092019160019091019061200a565b5061204b9291506121f9565b5090565b826002810192821561203f579160200282015b8281111561203f578251825591602001919060010190612062565b5080546120899061284d565b6000825580601f1061209b57506120b9565b601f0160209004906000526020600020908101906120b991906121f9565b50565b8280546120c89061284d565b90600052602060002090601f0160209004810192826120ea576000855561203f565b82601f1061210357805160ff191683800117855561203f565b8280016001018555821561203f579182018281111561203f578251825591602001919060010190612062565b60018301918390821561203f5791602002820160005b8382111561218357835183826101000a81548160ff021916908360ff1602179055509260200192600101602081600001049283019260010302612145565b80156121b05782816101000a81549060ff0219169055600101602081600001049283019260010302612183565b505061204b9291506121f9565b60405180606001604052806003906020820280368337509192915050565b60405180604001604052806002906020820280368337509192915050565b5b8082111561204b57600081556001016121fa565b600082601f83011261221e578081fd5b813567ffffffffffffffff8082111561223957612239612898565b604051601f8301601f19908116603f0116810190828211818310171561226157612261612898565b81604052838152866020858801011115612279578485fd5b8360208701602083013792830160200193909352509392505050565b803560ff81168114610a4d57600080fd5b6000602082840312156122b7578081fd5b81356001600160a01b0381168114611759578182fd5b6000602082840312156122de578081fd5b81518015158114611759578182fd5b6000602082840312156122fe578081fd5b813567ffffffffffffffff811115612314578182fd5b611c058482850161220e565b60008060408385031215612332578081fd5b823567ffffffffffffffff811115612348578182fd5b6123548582860161220e565b95602094909401359450505050565b600080600060608486031215612377578081fd5b833567ffffffffffffffff81111561238d578182fd5b6123998682870161220e565b9350506123a860208501612295565b9150604084013590509250925092565b600080600080608085870312156123cd578081fd5b843567ffffffffffffffff8111156123e3578182fd5b6123ef8782880161220e565b9450506123fe60208601612295565b93969395505050506040820135916060013590565b600060208284031215612424578081fd5b5035919050565b6000806040838503121561243d578182fd5b50508035926020909101359150565b8060005b6002811015611a9e5781516001600160a01b0316845260209384019390910190600101612450565b8060005b6002811015611a9e57815184526020938401939091019060010161247c565b8060005b6003811015611a9e57815160ff1684526020938401939091019060010161249f565b600081518084526124d9816020860160208601612821565b601f01601f19169290920160200192915050565b600082516124ff818460208701612821565b9190910192915050565b60006020825261175960208301846124c1565b60006060825261252f60608301866124c1565b602083019490945250901515604090910152919050565b60006040825261255960408301856124c1565b905060ff831660208301529392505050565b60208082526027908201527f776974686472617720616d6f756e7420657863656564732070656e64696e67206040820152667265776172647360c81b606082015260800190565b6020808252601190820152701a5b9d985b1a59081c1b185e595c881a59607a1b604082015260600190565b60208082526019908201527f706c61796572206d757374206265207265676973746572656400000000000000604082015260600190565b6020808252600f908201526e1a5b9d985b1a590819d85b59481a59608a1b604082015260600190565b60006101a082019050825115158252602083015160208301526040830151612668604084018261244c565b50606083015161267b6080840182612478565b50608083015161268e60c0840182612478565b5060a08301516101006126a381850183612478565b60c085015160ff90811661014086015260e08601511661016085015290930151151561018090920191909152919050565b6000602082526126e960208301845115159052565b60208301516101808060408501526127056101a08501836124c1565b91506040850151606085015260608501516080850152608085015160a085015260a085015160c085015260c085015160e085015260e085015161010061274d8187018361249b565b86015161016086015250610120909401519390920192909252919050565b6000821982111561277e5761277e612882565b500190565b600060ff821660ff84168060ff038211156127a0576127a0612882565b019392505050565b6000826127c357634e487b7160e01b81526012600452602481fd5b500490565b60008160001904831182151516156127e2576127e2612882565b500290565b6000828210156127f9576127f9612882565b500390565b600060ff821660ff84168082101561281857612818612882565b90039392505050565b60005b8381101561283c578181015183820152602001612824565b83811115611a9e5750506000910152565b600181811c9082168061286157607f821691505b602082108114156108d057634e487b7160e01b600052602260045260246000fd5b634e487b7160e01b600052601160045260246000fd5b634e487b7160e01b600052604160045260246000fdfea2646970667358221220f0edb24efb15e8209355607293642c29e5b29204d85ba305915653e1340123df64736f6c63430008030033",
  "immutableReferences": {},
  "source": "// contracts/BBU.sol\n// SPDX-License-Identifier: Apache-2.0\npragma solidity >=0.8.2;\n\nimport \"../dependencies/bundle.sol\";\nimport \"./IBBU.sol\";\n\npragma experimental ABIEncoderV2;\n\ncontract BBU is IBBU{\n\n    using BBUSafeMath for uint256;\n\n    // Define game constants\n    uint8 private constant BEAR = 1;\n    uint8 private constant BULL = 2;\n    uint8 private constant UNICORN = 3;\n    uint8 private constant MIN_MOVE = 1;\n    uint8 private constant MAX_MOVE = 3;\n    uint8 private constant GAME_STARTED_WAITING_PLAYERS_INTENTIONS = 1;\n    uint8 private constant GAME_STARTED_WAITING_PLAYERS_MOVES = 2;\n    uint8 private constant GAME_COMPLETED = 3;\n    bytes32 private constant EMPTY_INTENTION = bytes32(0);\n    bytes32 private constant EMPTY_SEED = bytes32(0);\n    uint256 private constant EMPTY_MOVE = uint256(0);\n\n    uint256 private constant NATIVE_FEES = 5;\n    uint256 private constant TOKEN_FEES = 3;\n\n    mapping(address => Player) private _players;\n    mapping(string => Game) private _games;\n\n    BBUERC20 private _token;\n\n    mapping (uint256 => mapping(uint256 => uint8)) internal rulesMatrix; // array to store rules of game\n\n    address payable public _gameAdmin;\n    bool locked = false;\n\n    constructor(BBUERC20 token, address payable gameAdmin) {\n      _token = token;\n      _gameAdmin = gameAdmin;\n      rulesMatrix[BEAR][BEAR] = 0;\n      rulesMatrix[BEAR][BULL] = 2;\n      rulesMatrix[BEAR][UNICORN] = 1;\n      rulesMatrix[BULL][BEAR] = 1;\n      rulesMatrix[BULL][BULL] = 0;\n      rulesMatrix[BULL][UNICORN] = 2;\n      rulesMatrix[UNICORN][BEAR] = 2;\n      rulesMatrix[UNICORN][BULL] = 1;\n      rulesMatrix[UNICORN][UNICORN] = 0;\n    }\n\n    function register(string memory pseudo) public override onlyNonRegisteredPlayer{\n      uint8[3] memory cardsLevel = [1, 1, 1];\n      _players[msg.sender] = Player(true, pseudo, 0, 0, 0, 0, 1, cardsLevel, 0, 0);\n      emit PlayerRegistered(msg.sender, pseudo);\n    }\n\n    function unregister() public override onlyRegisteredPlayer{\n        delete _players[msg.sender];\n    }\n\n    function createGame(string memory gameId, uint256 bet) public override onlyRegisteredPlayer payable {\n        require(!locked, \"Reentrant call detected!\");\n        require(!_games[gameId].initialized, \"game already registered\");\n        locked = true;\n        bool nativeCurrency = betNativeOrToken(bet);\n        uint256 actualBet = bet;\n        if(nativeCurrency){\n          actualBet = msg.value;\n        }\n        address[2] memory gamePlayers = [msg.sender, address(0)];\n        bytes32[2] memory playersMoveIntention = [EMPTY_INTENTION, EMPTY_INTENTION];\n        uint256[2] memory playersMove = [EMPTY_MOVE, EMPTY_MOVE];\n        bytes32[2] memory playersMoveSeed = [EMPTY_SEED, EMPTY_SEED];\n        _games[gameId] = Game(true, actualBet, gamePlayers, playersMoveIntention, playersMove, playersMoveSeed, GAME_STARTED_WAITING_PLAYERS_INTENTIONS, 0, nativeCurrency);\n        emit GameCreated(msg.sender, gameId, actualBet, nativeCurrency);\n        locked = false;\n    }\n\n    function joinGame(string memory gameId) public override payable onlyIfGameExists(gameId) onlyRegisteredPlayer returns(bool){\n        require(!locked, \"Reentrant call detected!\");\n        locked = true;\n        Game storage game = _games[gameId];\n        require(game.players[1] == address(0), \"party is full\");\n        require(game.players[0] != msg.sender, \"players must be different accounts\");\n        if(game.nativeCurrency){\n          require(msg.value >= game.bet, \"insufficient bet amount\");\n        }\n        betNativeOrToken(game.bet);\n        game.players[1] = msg.sender;\n        emit GameStarted(gameId, game.players[0], game.players[1]);\n        locked = false;\n        return true;\n    }\n\n    function submitIntention(string memory  gameId, uint8 playerId, bytes32 moveIntention) public override onlyIfGameExists(gameId) onlyRegisteredPlayer returns(bool){\n        Game storage game = _games[gameId];\n        require(game.gameStatus == GAME_STARTED_WAITING_PLAYERS_INTENTIONS, \"invalid game status\");\n        require(playerId == 1 || playerId == 2, \"invalid player id\");\n        require(game.players[playerId-1] == msg.sender, \"invalid player id\");\n        require(game.playersMoveIntention[playerId-1] == bytes32(0), \"player intention already submitted\");\n        game.playersMoveIntention[playerId-1] = moveIntention;\n        if(game.playersMoveIntention[0] != bytes32(0) && game.playersMoveIntention[1] != bytes32(0)){\n            game.gameStatus = GAME_STARTED_WAITING_PLAYERS_MOVES;\n        }\n        return true;\n    }\n\n    function submitMove(string memory  gameId, uint8 playerId, uint256 move, uint256 seed) public override onlyIfGameExists(gameId) onlyRegisteredPlayer returns(uint8){\n        Game storage game = _games[gameId];\n\n        require(game.gameStatus == GAME_STARTED_WAITING_PLAYERS_MOVES, \"invalid game status\");\n        require(playerId == 1 || playerId == 2, \"invalid player id\");\n        require(game.players[playerId-1] == msg.sender, \"invalid player id\");\n        require(game.playersMove[playerId-1] == uint8(0), \"player move already submitted\");\n        require(move >= MIN_MOVE && move <= MAX_MOVE, \"invalid move\");\n        bytes32 moveHash = calculateHash(move, seed);\n        require(moveHash==game.playersMoveIntention[playerId-1], \"submitted move is different than previously committed move\");\n        game.playersMove[playerId-1] = move;\n        game.playersMoveSeed[playerId-1] = bytes32(seed);\n\n        if(game.playersMove[0] != uint8(0) && game.playersMove[1] != uint8(0)){\n            game.winner = rulesMatrix[game.playersMove[0]][game.playersMove[1]];\n            game.gameStatus = GAME_COMPLETED;\n            updatePlayersStats(game);\n            emit GameFinished(gameId, game.winner);\n            return game.winner;\n        }\n\n        return 0;\n    }\n\n    function updatePlayersStats(Game memory game) internal{\n      Player storage player1 = _players[game.players[0]];\n      Player storage player2 = _players[game.players[1]];\n      player1.gamesPlayed = player1.gamesPlayed.add(1);\n      player2.gamesPlayed = player2.gamesPlayed.add(1);\n      uint256 winnerReward = computeWinnerReward(game.bet, game.nativeCurrency);\n      if(game.winner == 1){\n        player1.level = player1.level.add(1);\n        player1.gamesWon = player1.gamesWon.add(1);\n        updateCardsLevel(game, player1, 1);\n        player2.gamesLost = player2.gamesLost.add(1);\n        increasePlayerPendingRewards(player1, game.nativeCurrency, winnerReward);\n      }else if(game.winner == 2){\n        player2.level = player2.level.add(1);\n        updateCardsLevel(game, player2, 2);\n        player1.gamesLost = player1.gamesLost.add(1);\n        increasePlayerPendingRewards(player2, game.nativeCurrency, winnerReward);\n      }else{\n        player1.gamesDraw = player1.gamesDraw.add(1);\n        player2.gamesDraw = player2.gamesDraw.add(1);\n      }\n    }\n\n    function increasePlayerPendingRewards(Player storage player, bool nativeCurrency, uint256 reward) internal {\n      if(nativeCurrency){\n        player.pendingNativeRewards = player.pendingNativeRewards.add(reward);\n      }else{\n        player.pendingTokenRewards = player.pendingTokenRewards.add(reward);\n      }\n    }\n\n    function updateCardsLevel(Game memory game, Player storage player, uint8 winner) internal{\n      uint8 move = uint8(game.playersMove[winner - 1]);\n      uint8 cardLevel = player.cardsLevel[move - 1];\n      player.cardsLevel[move - 1] = cardLevel + 1;\n    }\n\n    function claimNativeRewards(uint256 amount) public override onlyRegisteredPlayer{\n        Player storage player = _players[msg.sender];\n        require(player.pendingNativeRewards >= amount, \"withdraw amount exceeds pending rewards\");\n        player.pendingNativeRewards = player.pendingNativeRewards.sub(amount);\n        address addr = address(msg.sender);\n        address payable wallet = payable(addr);\n        bool success = wallet.send(amount);\n        require(success, \"Claim Transfer failed.\");\n    }\n\n    function claimTokenRewards(uint256 amount) public override onlyRegisteredPlayer{\n        Player storage player = _players[msg.sender];\n        require(player.pendingTokenRewards >= amount, \"withdraw amount exceeds pending rewards\");\n        player.pendingTokenRewards = player.pendingTokenRewards.sub(amount);\n        safeTransferFrom(address(this), msg.sender, amount);\n    }\n\n\n    function isNativeCurrency(uint256 amount) internal view returns(bool){\n        return amount == 0 || msg.value > 0;\n    }\n\n    function betNativeOrToken(uint256 amount) internal returns(bool){\n        bool nativeCurrency = isNativeCurrency(amount);\n        uint256 gameFees = computeFees(amount, nativeCurrency);\n        uint256 bet = amount.sub(gameFees);\n        if(nativeCurrency){\n            bool adminTransferSuccess = _gameAdmin.send(gameFees);\n            require(adminTransferSuccess, \"Game Admin Transfer failed.\");\n            address addr = address(this);\n            address payable wallet = payable(addr);\n            bool betTransferSuccess = wallet.send(bet);\n            require(betTransferSuccess, \"Game Bet Transfer failed.\");\n            return true;\n        }else{\n            safeTransferFrom(msg.sender, _gameAdmin, gameFees);\n            safeTransferFrom(msg.sender, address(this), bet);\n            return false;\n        }\n    }\n\n    function computeWinnerReward(uint256 amount, bool nativeCurrency) internal pure returns(uint256){\n      uint256 gameFees = computeFees(amount, nativeCurrency);\n      return amount.sub(gameFees).mul(2);\n    }\n\n    function computeFees(uint256 amount, bool nativeCurrency) internal pure returns(uint256){\n      if(nativeCurrency){\n          return amount.mul(NATIVE_FEES).div(100);\n      }else{\n          return amount.mul(TOKEN_FEES).div(100);\n      }\n\n    }\n\n    function tokenAddress() public view returns(address){\n        return address(_token);\n    }\n\n    function gameInfo(string memory  gameId) public view returns(Game memory){\n        return _games[gameId];\n    }\n\n    function myInfo() public view returns(Player memory){\n        return playerInfo(msg.sender);\n    }\n\n    function playerInfo(address playerAddress) public view returns(Player memory){\n        return _players[playerAddress];\n    }\n\n    modifier onlyIfGameExists(string memory  gameId){\n        require(_games[gameId].initialized, \"invalid game id\");\n        _;\n    }\n\n    modifier onlyRegisteredPlayer(){\n        require(_players[msg.sender].initialized, \"player must be registered\");\n        _;\n    }\n\n    modifier onlyNonRegisteredPlayer(){\n        require(!_players[msg.sender].initialized, \"player already registered\");\n        _;\n    }\n\n    /**\n    * @dev calculates hash to be stored as commitment.\n    * @param _choiceCode BEAR(1), BULL(2) or UNICORN (3).\n    * @param _randomNumber random number used to create a unique hash\n    */\n    function calculateHash (uint256 _choiceCode, uint256 _randomNumber) public pure returns (bytes32){\n        return keccak256(abi.encodePacked(keccak256(abi.encodePacked(_choiceCode)) ^ keccak256(abi.encodePacked(_randomNumber))));\n    }\n\n    function safeTransferFrom(address from, address to, uint256 value) internal {\n        _callOptionalReturn(abi.encodeWithSelector(_token.transferFrom.selector, from, to, value));\n    }\n\n    function _callOptionalReturn(bytes memory data) private {\n        (bool success, bytes memory returndata) = address(_token).call(data);\n        require(success, \"Token call failed\");\n        if (returndata.length > 0) { // Return data is optional\n            require(abi.decode(returndata, (bool)), \"SafeERC20: ERC20 operation did not succeed\");\n        }\n    }\n\n    receive() external payable{\n\n    }\n\n    fallback() external payable{\n\n    }\n}\n",
  "sourcePath": "/Users/abdelhamid/Documents/GitHub/_koalax/koalax.protocol/contracts/bbu/BBU.sol",
  "compiler": {
    "name": "solc",
    "version": "0.8.3+commit.8d00100c.Emscripten.clang"
  },
  "schemaVersion": "3.3.4",
  "updatedAt": "2021-04-19T13:40:49.824Z",
  "devdoc": {
    "kind": "dev",
    "methods": {
      "calculateHash(uint256,uint256)": {
        "details": "calculates hash to be stored as commitment.",
        "params": {
          "_choiceCode": "BEAR(1), BULL(2) or UNICORN (3).",
          "_randomNumber": "random number used to create a unique hash"
        }
      }
    },
    "version": 1
  },
  "userdoc": {
    "kind": "user",
    "methods": {},
    "version": 1
  }
}